:020000040800F2
:10000000180A00209D010008731100082D10000837
:1000100071110008CD020008DD1800080000000082
:10002000000000000000000000000000571400085D
:10003000CF0200080000000075110008DF1400085E
:10004000B7010008B7010008B7010008B7010008B0
:10005000B7010008B7010008B7010008B7010008A0
:10006000B7010008B7010008B7010008B701000890
:10007000B7010008B7010008B7010008B701000880
:10008000B7010008B7010008B7010008B701000870
:10009000B7010008B7010008B7010008B701000860
:1000A000B7010008B7010008B7010008B701000850
:1000B000B7010008B7010008B7010008B701000840
:1000C000B7010008B7010008B7010008B701000830
:1000D000B7010008B7010008D1180008B7010008EF
:1000E000B7010008B7010008B7010008B701000810
:1000F000B7010008B7010008B7010008B701000800
:10010000B7010008B7010008B7010008B7010008EF
:10011000B7010008B7010008B7010008B7010008DF
:10012000B7010008B7010008B7010008B7010008CF
:10013000B7010008B7010008B7010008B7010008BF
:10014000B7010008B7010008B7010008B7010008AF
:10015000B7010008B7010008B7010008B70100089F
:10016000B7010008B7010008B7010008B70100088F
:10017000B7010008B7010008B7010008000000003F
:10018000B7010008B7010008DFF80CD000F08CF8C8
:1001900000480047791D0008180A002006488047DB
:1001A00006480047FEE7FEE7FEE7FEE7FEE7FEE75C
:1001B000FEE7FEE7FEE7FEE77D150008890100087F
:1001C0002DE9F05F0546002092469B46884606468C
:1001D000814640241BE0284641464746224600F01F
:1001E00053F853465A46C01A914110D31146184647
:1001F000224600F03AF82D1A67EB01084F462246D6
:100200000120002100F031F817EB00094E41201EBB
:10021000A4F10104DFDC484631462A464346BDE8E6
:10022000F09F40EA01039B0703D009E008C9121FB1
:1002300008C0042AFAD203E011F8013B00F8013BA0
:10024000521EF9D27047D2B201E000F8012B491ECC
:10025000FBD270470022F6E710B513460A46044663
:100260001946FFF7F0FF204610BD202A04DB203A94
:1002700000FA02F1002070479140C2F1200320FAF9
:1002800003F3194390407047202A04DB203A21FAF7
:1002900002F00021704721FA02F3D040C2F120029F
:1002A0009140084319467047064C074D06E0E06848
:1002B00040F0010394E8070098471034AC42F6D3AD
:1002C000FFF766FF7022000890220008FEE77047E3
:1002D00070B50C4D00240821284600F05FF950B19C
:1002E0001021284600F05AF938B12021284600F0A4
:1002F00055F920B104E0012402E0022400E00324C7
:10030000204670BD00040240F7EE000A9FED0F0A80
:10031000C0ED120A80ED0A0A9FED0D0A9FED0D1A3D
:1003200080ED0C0A80ED0B0A80ED0D1A80ED0F0AAE
:1003300080ED0E0AC0ED100ADFED070AC0ED110ACC
:1003400080ED060A80ED070A704700000000704249
:10035000000000000000A0429A99993F30B56FF06C
:100360006302914201DA114602E0642900DD642152
:10037000934201DA134602E0642B00DD6423CD1CB6
:100380006FF0020440F2FF3203D0A14201DB0329E7
:1003900006DB058801EB810105EB4101018000E0EE
:1003A0000280D91C03D0A34201DB032B04DB42886B
:1003B00002EB8301418000E042804FF0000030BD3D
:1003C00090F83510022903D0802141650120704743
:1003D000052180F835100068016821F001010160F5
:1003E000002070472DE9F84F00224FF00108032547
:1003F0004FF00F0E0B6808FA02F42340A3426ED1AF
:100400004E68012E05D0022E03D0112E01D0122EDF
:1004100012D186684FEA420C05FA0CF7BE43CF684A
:1004200007FA0CF7374387604668A6430C79C4F394
:100430000014944034434460C668570005FA07FC32
:100440008C6826EA0C06BC403443C4604C68022C1D
:1004500001D0122C13D1D40800EB8404A346D4F8A5
:10046000209054074FEAD46A0EFA0AF629EA0609E0
:100470000E6906FA0AF646EA0906CBF82060066815
:100480000C7926EA0C0604F00304BC4034430460F3
:100490004C68E40065D5364C266846F480462660F4
:1004A000246822F0030604F480440094314C344460
:1004B000A446D4F808489607370F0EFA07F6B44357
:1004C0002D4EB04201D1002624E02C4EB04201D185
:1004D00001261FE02A4EB04202D102261AE040E077
:1004E000284EB04201D1032614E0274EB04201D17C
:1004F00004260FE0254EB04201D105260AE0244E25
:10050000B04201D1062605E0224EB04201D10726B5
:1005100000E00826BE402643CCF808681E4E34682A
:100520004F689C43FF0300D51C4334601A4C241DC4
:1005300026684F689E43BF0300D51E432660164EB3
:10054000083634684F689C43FF0200D51C43346072
:10055000114E0C3634684F689C43BF0200D51C43D3
:100560003460521C102AFFF445AFBDE8F88F00003C
:1005700044380240003001400000024000040240C4
:1005800000080240000C024000100240001402402B
:1005900000180240001C0240003C01400069084075
:1005A00000D0012070470AB1816170470904FBE760
:1005B00001488068704700002400002002488168DC
:1005C0000278114481607047240000200B4810B568
:1005D000016841F400710160016841F480610160CB
:1005E000016841F480710160032000F06FF8002081
:1005F00000F006F800F024F8002010BD003C024096
:1006000070B50D4D04464FF47A712878B1FBF0F0C7
:100610000A490968B1FBF0F000F002FB48B9102C60
:1006200007D200222146501E00F030F800206C60F6
:1006300070BD012070BD00002400002030000020AB
:100640000A4808B5016841F480410160006800F47F
:10065000804000900548001F016841F08051016012
:10066000006800F08050009008BD0000443802404F
:10067000002809DB00F01F020121914040098000A1
:1006800000F1E020C0F8001170470000F0B40E4BFC
:100690001B680C46C3F30223C3F10705042D00D9E0
:1006A0000425191D072901D2002300E0DB1E0126C5
:1006B00006FA05F1491E214099409E40761E1640DB
:1006C0003143F0BC01F01CB90CED00E0064900F02C
:1006D000070208684FF6FF03184040EA0220034A69
:1006E00010430860704700000CED00E00000FA05C0
:1006F0002DE9F0470E46050065D0DFF81481D8F8E3
:100700000000F7B200F00F00B04207D288F8007086
:10071000D8F8000000F00F00B04254D128683D4CDA
:10072000810712D5400703D5206840F4E0502060CF
:100730002878000703D5206840F4604020602068D6
:10074000A96820F0F000084320602878C0072DD069
:10075000304968680839012812D0022813D00328CC
:1007600011D00968890700292DDA216821F00301D9
:1007700001432160FFF71CFF814641F2883A0EE0F9
:1007800009688903EFE709688901ECE7FFF710FFC3
:10079000A0EB0901514502D90320BDE8F08720688C
:1007A000696800F00C00B0EB810FEFD1D8F80010B1
:1007B000404601F00F01B14207D90770006800F010
:1007C0000F00B04201D00120E7E72878400705D5A7
:1007D0002068E96820F4E05008432060287800078A
:1007E00006D52068296920F4604040EAC1002060F5
:1007F00000F038F82168084AC1F30311515CC84081
:100800000649086006480068FFF7FAFE0020C4E7C2
:10081000003C024008380240582200083000002006
:10082000280000200448054900680968044AC1F30B
:100830008221515CC84070473000002008380240D7
:10084000682200080448054900680968044AC1F3A1
:100850004231515CC84070473000002008380240E7
:1008600068220008154810B5006810F00C02144802
:1008700013D04110042A0FD0082A0ED10F4C241F88
:100880002268236802F03F025B0207D52068C0F3AC
:100890008810A0FB010106E0084610BD2168C1F3E5
:1008A0008811A1FB00010023FFF78AFC2168C1F336
:1008B0000141491C4900B0FBF1F010BD083802406D
:1008C0000024F4002DE9F84F04006ED02078DFF802
:1008D0003C93C007A9F104054AD009F1040001685E
:1008E000C1F38101012908D00068C0F3810002280A
:1008F0000AD1D9F80000400206D52868800337D510
:1009000060680028E1D033E06068B0F5803F10D027
:10091000B0F5A02F286810D020F480302860286817
:1009200020F4802028606068A8B1FFF741FE0646E9
:100930000DE0286840F48030F4E740F4802028601F
:10094000F7E700BFFFF734FE801B642873D82868E0
:100950008003F7D50CE0FFF72BFE064605E000BF4D
:10096000FFF726FE801B6428F0D828688003F7D4A0
:100970002078DFF89C8280074FF0000A3ED5A3481C
:10098000001D016811F00C0F08D00068C0F3810051
:1009900002280BD1D9F80000400207D4286880074C
:1009A00016D5E068012800D112E02BE1E068B8B16B
:1009B0000120C8F80000FFF7FBFD064605E000BF78
:1009C000FFF7F6FD801B0228C0D828688007F7D5FE
:1009D0002868216920F0F80040EAC10028600DE095
:1009E000C8F800A0FFF7E4FD064604E0FFF7E0FDCD
:1009F000801B02281FD828688007F7D420780007BA
:100A000022D5824E83486169703671B1012101603F
:100A1000FFF7CEFD074604E0FFF7CAFDC01B022822
:100A200009D830688007F7D50EE0C0F800A0FFF7BE
:100A3000BFFD074605E082E0FFF7BAFDC01B0228B4
:100A40007DD830688007F7D42078400768D5DFF874
:100A5000BCB100270BF13C0BDBF80000C0000BD44D
:100A6000DBF8001041F08051CBF80010DBF80000FB
:100A7000012700F080500090674E3068C00510D408
:100A8000306840F480703060FFF792FD009005E020
:100A9000FFF78EFD0099401A022850D83068C00533
:100AA000F6D55A4EA0686C3601280FD0052830685C
:100AB00010D020F001003060306820F00400306079
:100AC000A068B8B1FFF774FD00900FE0306840F007
:100AD0000100F4E740F004003060F7E7FFF768FD3D
:100AE0000099411A41F28830814266D83068800707
:100AF000F4D50EE0FFF75CFD009007E0FFF758FD2E
:100B00000099411A41F28830814256D830688007F6
:100B1000F4D42FB1DBF8001021F08051CBF8001095
:100B2000A069C8B33949091D0968C1F381010229C7
:100B30004AD00228504607D0C8F8600000E03CE0E8
:100B4000FFF736FD04463BE04746C8F86000FFF774
:100B50002FFD064605E000BFFFF72AFD801B022897
:100B60002BD828688001F7D4D4E907010843A16A8B
:100B70002A4A490802EB0141626A41EA82110843AC
:100B800094F82C1040EA0161C9F800100120386681
:100B9000FFF70EFD044606E036E000BFFFF708FD54
:100BA000001B022809D828688001F7D52CE000BF77
:100BB000FFF7FEFC001B022802D90320BDE8F88FD6
:100BC00028688001F4D41FE00128F7D0D9F800008C
:100BD000E26900F48001914214D1226A00F03F01E1
:100BE00091420FD147F6C071626A0140914209D12A
:100BF000A26A00F44031914204D1E16A00F07060D1
:100C0000884201D00120D9E70020D7E7043802400C
:100C100000004742800E4742007000400000FFFF86
:100C200010B5401EB0F1807F01D3012010BD4FF000
:100C3000E02460610F21601700F062FE0020A061D7
:100C400007202061002010BD7047000070B50268C9
:100C500004461068D168536910F00F0F53D003F0A9
:100C6000010501F490762E435FD0C20705D0CA0576
:100C700003D5E26B42F00102E263420705D5DA07D1
:100C800003D0E26B42F00202E263820705D5DA0785
:100C900003D0E26B42F00402E263020707D501F0E1
:100CA00020022A4303D0E26B42F00802E263E26BC7
:100CB000002A34D0800604D5880602D5204600F0EC
:100CC000C3FC20684069E16BC0F3801001F00801AB
:100CD0000143204624D000F0A9FC20684169490660
:100CE0001AD5416921F040014161606BA0B11B49F7
:100CF0000165606BFFF764FB002810D0606B016D2D
:100D0000BDE87040084783060FD58B060DD52046F9
:100D1000BDE8704000F098BC2046FFF795FF70BD1D
:100D2000FFF792FF0020E06370BD030606D50B06B7
:100D300004D52046BDE8704000F066BD4006F3D5FE
:100D40004806F1D5D168204621F04001D16020212C
:100D500084F8391000F069F970BD00001D16000814
:100D600070B5040004D094F83900002510B106E0F5
:100D7000012070BD84F83850204600F023F824206C
:100D800084F839002068C16821F40051C160204610
:100D900000F0A6FC2068016921F4904101612068FF
:100DA000416921F02A0141612068C16841F4005184
:100DB000C160E563202084F8390084F83A000020FF
:100DC00070BD0000F0B587B0044614216846FFF7F7
:100DD00041FA3F483D4B266800223D491038022425
:100DE00003259E422AD10A6842F480120A600968EB
:100DF00001F480110591016841F00401016001686E
:100E000001F004010591016841F0080101600068EA
:100E1000012600F00800059098148DE8510008277D
:100E2000CDE9035769462B48FFF7DCFA04208DE82B
:100E30005100CDE903576946274843E0274F072370
:100E4000BE4223D10E6846F400360E60096801F4F4
:100E500000310591016841F0010101600068CDE9B0
:100E6000022500F0010005900C20CDE90004694640
:100E700004931B48FFF7B6FA002211462620FFF71D
:100E800005FC2620FFF7F4FB07B0F0BD154FBE426E
:100E9000FAD10E6846F480260E60096801F48021BC
:100EA0000591016841F0020101600068CDE9022569
:100EB00000F0020005904FF44060CDE9000469465F
:100EC00004930948FFF78EFADEE700000050004067
:100ED0004038024000080240000C0240004400403C
:100EE00000000240004800400004024090F83A3000
:100EF000202B22D1F9B1F2B190F83830012B1CD05F
:100F000081628285C2850021C163222280F83A2055
:100F100080F838100168CA6842F48072CA600168BB
:100F20004A6942F001024A610068C16841F020014B
:100F3000C160002070470120704702207047000008
:100F400010B50068074988420AD10748007800F0C8
:100F5000DBFEBDE81040012203490448FFF7C6BF8D
:100F600010BD00000044004000000020940000205C
:100F70002DE9F843044690F839001F4616460D4601
:100F8000202850D1B5B1AEB194F8380001284AD02C
:100F9000012084F838004FF00008C4F83C8021207C
:100FA00084F83900FFF704FBA6848146E68484F8C0
:100FB000388026E00120BDE8F883E08C401EE08404
:100FC000A0684B46B0F5805F4FF000024FF0800103
:100FD0002046009703D000F048FCE8B90DE000F08F
:100FE00044FCC8B928882168C0F30800486020691B
:100FF00008B16D1C05E0AD1C03E0216815F8010B7C
:101000004860E08C0028D8D14B4600224021204681
:10101000009700F02AFC08B10320CCE7202084F8D8
:1010200039000020C7E70220C5E77047FEE700004F
:10103000064A0021535C834201D101207047491CBC
:10104000C9B20629F6D30020704700001C0000201A
:1010500010B50024204600F0FFF9FFF739F918B960
:10106000641CE4B2042CF5D300EB8400401EC0B233
:1010700010BD000010B5144C002210212046FFF7CF
:1010800092FA002220212046FFF78DFA002240210B
:101090002046FFF788FA002280212046FFF783FAD6
:1010A0000A4C08212046FFF779FA58B11021204652
:1010B000FFF774FA30B120212046FFF76FFA08B12C
:1010C000002010BD012010BD000C024000040240B1
:1010D00070B586B014216846FFF7BCF8214800249B
:1010E000016841F004010160016801F0040105910B
:1010F000016841F080010160016801F08001059103
:10110000016841F001010160016801F001010591F0
:10111000016841F002010160016801F002010591DE
:10112000016841F00801016000680F4E00F00800FE
:1011300005900022F0213046FFF735FAF0200090AC
:101140000125CDE90154694630460394FFF74AF979
:1011500078208DE8310069460448FFF743F906B06E
:1011600070BD000030380240000C02400004024014
:10117000FEE7FEE77047000040490F2200280A7092
:1011800072D002784A7002888378C2F3022242EA5F
:10119000C3028A7042880379C2F3451242EA83127D
:1011A000CA70828892080A7182888379C2F3802289
:1011B00042EA43024A71C288037AC2F3C31242EA86
:1011C00003128A710289837AC2F3061242EAC312B9
:1011D000CA71428952080A724289037BC2F34122D2
:1011E00042EA83024A728289837BC2F3841242EA12
:1011F00043128A72C289D208CA72027C0A73028AB6
:10120000837CC2F3022242EAC3024A73428A037D0C
:10121000C2F3451242EA83128A73828A9208CA7321
:10122000828A837DC2F3802242EA43020A74C28A20
:10123000C2F3C313028B43EA02134B74C2F30613C7
:10124000428B43EAC2138B745308CB74C2F341231D
:10125000828B43EA82030B75C08BC2F3841242EA8D
:1012600040124A75C00888750020C8750876034981
:101270006423192201F11C00FFF77ABE3800002018
:10128000F8B505460020009017460C46881C1E46FF
:101290000122694600F012F90346A0882880E08800
:1012A00068802089A28901B26089AA81E289EA81E5
:1012B000227C2A74627C6A74628A6A82227D2A7520
:1012C000627D00EE101A6A7594F816C0B8EEC01A66
:1012D00000EE10CADFED150A00B2B8EE400AE27D5A
:1012E00000EE201A00EE100A85ED011AB8EEC01AC1
:1012F00000EE102AB8EE400A00EE201A85ED021A20
:10130000208BE882608B28831C20262B0DDB2FB1DD
:1013100004F11C0000F0E1FEC7E9000126B104F170
:10132000240000F0D5FE30602820F8BD0000803B8E
:101330002DE9FF4F81B00026DDE90FA78046DDF8DB
:1013400038B01D469146304600963E54401CC0B20F
:101350000628FAD3A81C0122694600F0AFF8009CC9
:101360008446E41C4FF0FF30295D641C51296FD185
:10137000295D88F80010641C4FF00008295D641C8A
:101380000A0603D54FF0010821F0800149455FD8D6
:101390004FF000094A4641E0285D641C401CC3B27E
:1013A0000298521C00EB4310D2B24376FB542B1927
:1013B000A41C1B8809F101091BB200EE103A2B197D
:1013C000A41CB8EEC00A80ED010A1B881BB200EE17
:1013D000103A2B19A41CB8EEC00A80ED000A1B8835
:1013E00043812B19A41C1B8803812B19A41C1B8867
:1013F00043822B19A41C1B8803822B5D641C8375FC
:101400002B5D03F08303037680F81B802B5DC3F311
:101410008103C375072383824677641C8A4201D205
:101420006445B9DBACEB04000A2810DBBBF1000F0C
:1014300004D0281900F051FECBE900010834BAF1BC
:10144000000F04D0281900F043FECAF800004846F7
:1014500005B0BDE8F08F704770B5174D0446012206
:1014600010212846FFF79FF8012220212846FFF788
:101470009AF8012240212846FFF795F801228021A1
:101480002846FFF790F864B1012C0DD0022C0ED045
:10149000032C0FD1002280212846BDE87040FFF7C1
:1014A00082B800221021F7E700222021F4E7002271
:1014B0004021F1E770BD0000000C024010B503466A
:1014C000002400780C60002A08D0020606D55A785D
:1014D00020F0800000EBC21001220A6010BDFFF76F
:1014E0006DB8000030B593B030216846FEF7B2FE0B
:1014F00014210CA8FEF7AEFE1E480025016841F03D
:1015000080510160006800F0805011901A48016815
:1015100041F4804101600068022400F48040119091
:1015200001200090000401908001CDE906400820D0
:1015300008904FF4A870CDE9090404200B90684688
:10154000FFF7C0F908B172B6FEE70CA90F2081E8D9
:1015500031004FF4A0500F904FF4805010900521AF
:101560000CA8FFF7C5F8002801D072B6FEE713B04B
:1015700030BD00004038024000700040054801685E
:1015800041F47001016003494FF000608039086048
:101590007047000088ED00E00FB418B5DDE90B14CA
:1015A0009DF8220032282FD99DED040A184A10EE2A
:1015B000100A904228D0DDED030A10EE900A904206
:1015C00022D091ED121ADFED131A084670EE611A5F
:1015D00081EE810ADFED101A70EEE11AC1EE810A88
:1015E00000F088FD7D20009091ED070A73222046CF
:1015F000BDEEC00A10EE103A91ED060ABDEEC00A2B
:1016000010EE101AFEF7AAFE18BC00205DF814FBBD
:10161000000080BF000070440000074410B5806BDC
:101620000021C185C184FFF70FFB10BD0168CA68A6
:1016300022F49072CA6001684A6922F001024A618C
:10164000202180F83A10704710B590F83A102229FE
:1016500001D0022010BD8168B1F5805F11D0016911
:10166000002901681FD0496801F07F03816A4A1C84
:1016700082620B70C18D491E0904090CC18518D006
:101680002BE00269816A002A0268526805D0D2B252
:101690000A80816A491C8162ECE7C2F308020A8071
:1016A000816A891CF7E74A68816A4B1C83620A7069
:1016B000E0E70168CA6822F02002CA600168CA68CF
:1016C00022F48072CA6001684A6922F001024A610C
:1016D000202180F83A10FFF733FC002010BD0000F5
:1016E0002DE9F041044600680169E26821F44051A7
:1016F000114301612169A068E269084361691143EE
:1017000008432168CA6849F20C639A430243CA60DD
:1017100020684169A26921F4407111434161E06987
:10172000192764253226B0F5004F354A354920681F
:101730004FF0000806D0884201D0904236D1FFF722
:1017400081F835E0884201D0904202D1FFF77AF863
:1017500001E0FFF767F861684A18A0FB070148EB52
:101760000803FEF72DFD0146B0FBF5F00201B1FBC9
:10177000F5F06FF01803584301EB800006EBC00052
:10178000B0FBF5F000F0F80002EB4002B1FBF5F021
:10179000584301EB800006EBC000B0FBF5F000F011
:1017A0000700216810448860BDE8F081FFF73AF82F
:1017B00061688B0F8A00A0FB0701FEF701FD01465F
:1017C000B0FBF5F06FF01802504301EB800006EB20
:1017D0000010B0FBF5F000F0F002B1FBF5F002EB09
:1017E0000012B1FBF5F06FF01803584301EB8000D5
:1017F00006EB0010B0FBF5F000F00F00D1E70000A1
:10180000001401400010014090F83910212901D046
:10181000022070478168B1F5805F016A0BD04A1CD5
:101820000262026809785160C18C491E0904090CE2
:10183000C1840ED017E009880268C1F30801516025
:1018400001690029016A02D0491C0162ECE7891C88
:10185000FBE70168CA6822F08002CA600068C168BC
:1018600041F04001C160002070472DE9F0419846E9
:1018700017460E460446069D1DE0681C1BD02DB180
:10188000FEF796FEA0EB0800A84214D92068C168B4
:1018900021F4D071C1602068416921F001014161EA
:1018A000202084F8390084F83A00002084F83800B9
:1018B0000320BDE8F0812068006836EA000004D00B
:1018C0000020B842D9D00020F3E70120F9E700005A
:1018D0000148FFF7BBB9000094000020FEE70000BC
:1018E0000FB4054B10B503A9044A029800F028F87C
:1018F00010BC5DF814FB0000F11C0008340000204F
:101900000907090E002804DB00F1E02080F800142C
:10191000704700F00F0000F1E02080F8141D7047C0
:1019200002E008C8121F08C1002AFAD170477047A8
:10193000002001E001C1121F002AFBD17047000006
:101940002DE9FF4F8DB09B460F460446002606E06A
:1019500025280BD05A460F999047641C761C207896
:101960000028F5D111B03046BDE8F08F0025A8461B
:101970000122984900E0054314F8013F203B02FA98
:1019800003F00842F7D120782E2817D114F8010F60
:1019900045F004052A280ED06FF02F022078A0F120
:1019A000300109290AD808EB880102EB410100EB5C
:1019B0000108641CF2E757F8048B641C20786C283B
:1019C0000DD004DC4C2812D06A2811D104E0742810
:1019D0000DD07A280CD10AE045F4001507E06178B3
:1019E00045F48015814202D1641C05F58015641C04
:1019F0002278692A45D008DC002AB3D0582A69D059
:101A0000632A10D0642A08D13BE0702A67D0732A79
:101A100013D0752A5CD0782A5CD010465A460F99AC
:101A20009047761CD3E017F8040B8DF800000020D7
:101A30008DF80100E946012003E057F8049B4FF0C0
:101A4000FF3069074FF0000501D40AE06D1C4545E1
:101A50000DDA8542FADB19F805100029F6D106E007
:101A60006D1C8542FCDB19F805100029F8D12E44C5
:101A700004E019F8010B5A460F9990476D1EF8D2F1
:101A8000A5E00A200021CDE90801C5F30250022893
:101A90000DD001CFC117031E71F100030DDA4FF015
:101AA000000CD0EB0C006CEB01012D2308E0FF1DB6
:101AB00027F00707F7E80201EDE72B0504D52B23F4
:101AC0008DF8283001233BE0EB0739D02023F7E7DE
:101AD0000A2000E010200021CDE9080107E01020D5
:101AE000002145F00405CDE908014FF00808C5F3D1
:101AF000025002280FD001CF00214FF0000A2B071F
:101B00001FD5702A0DD0DDE908C38CF0100C5CEAFB
:101B1000030C0CD015E0FF1D27F00707F7E80201C2
:101B2000EBE740228DF828204FF0010A0BE050EA45
:101B3000010306D030238DF828308DF829200223A8
:101B40009A46582A04D024A20DF120090B9209E0EC
:101B500026A2F9E7DDE90823FEF732FB0B9B9B5C2D
:101B600009F8013D50EA0102F4D1ADEB0900203043
:101B70000890680701D44FF001080899884502DDF4
:101B8000A8EB010000E000208046002506E00AA83E
:101B90005A46405D0F9990476D1C761C5545F6DB03
:101BA00004E030205A460F999047761CB8F10001A6
:101BB000A8F10108F5DC05E019F8010B5A460F9968
:101BC0009047761C0899481E08900029F4DC641C94
:101BD000C5E600000928010030313233343536378C
:101BE0003839616263646566000000003031323369
:101BF0003435363738394142434445460000000009
:101C000030B58BB00C464FF0FF310A910021CDE981
:101C10000811154601460AAB08AA01A8FFF730FBD8
:101C20009DF81400322832D9BDF90410481C2ED07A
:101C3000BDF90600421C2AD000EE101ADFED150A8D
:101C400094ED121AB8EEC00ADFED131A70EE600AB6
:101C500080EE810A00EE900A2046F8EEE00A70EE6F
:101C6000E11AC1EE810A00F045FA7D20009094ED62
:101C7000070A73222846BDEEC00A10EE103A94ED12
:101C8000060ABDEEC00A10EE101AFEF767FB0BB095
:101C9000002030BD000070440000074410B500F083
:101CA0004FF810B10BA0FFF71BFE10490E484A6910
:101CB0008B69805C9A4204D14FF0FF324A618A619D
:101CC00010BDA2F54073FF3B02D0521C4A6110BD0B
:101CD0000022FBE70A517565756520556E646572D3
:101CE000666C6F770A0000001402002000000020DC
:101CF00013B50A23012269460248FFF739F9009813
:101D00001CBD0000D400002010B5034600F022F8EE
:101D100000280ED108494A69521C00D148618A69DD
:101D2000A2F54074FF3C05D0521C8A6103488969C2
:101D3000435410BD8861F9E7000000201402002020
:101D400003484069401C01D00020704701207047C3
:101D50000000002007484169806919B9A0F5407268
:101D6000FF3A02D0401C814201D10120704700207F
:101D70007047000000000020D2B0FEF727FC3EA80C
:101D8000FEF7C2FA0024A3462022B54906A85194C2
:101D9000FEF747FA06A8FFF7EFF906A8FFF7ECF9F8
:101DA000FFF7A0FBFFF794F9AF48AE494FF4614647
:101DB0000160C0E901640C25C460C0E90445846188
:101DC000C461FEF7CDFF08B172B6FEE7A648A74989
:101DD00040300160C0E90164C460C0E90445846129
:101DE000C461FEF7BDFF08B172B6FEE79E48A04988
:101DF00040384FF4005201609E494160C0E9024200
:101E0000D2100261C0E90554A146C461FEF7A8FFE3
:101E100008B172B6FEE7012297499348FFF766F8CA
:101E2000DFF84482944C4FF0010A40F2FF3608F18B
:101E3000800800BFADF81860ADF81A6006E100BF79
:101E4000FFF718F9B8B1FFF703F906280CD00A28F4
:101E50000DD00C2802D00E280BD102E000F0A0F922
:101E600009E000F0ABF906E084F803A003E00220EB
:101E7000E0704FF0000BA0786070FFF70FFFA070CC
:101E800067780546512F01D1AC2D17D06068022824
:101E900022D0A06803281EDB401C08EB0002A060D3
:101EA00002F8015CE268D21C904214D1C4F810A080
:101EB000E078012817D0022872D121E06A484FF457
:101EC00080718030FEF7C6F902206060A06088F85B
:101ED000007088F80150B9E003206060C4E9020591
:101EE00088F80250B2E098F80300432858D15E48C1
:101EF00006AA3EA98030FFF783FEADF81E6099E088
:101F000098F8030051284BD15B4B57491C3351AA19
:101F100080310EA8CDF8449100F0B0F8FFF7AAF890
:101F200000B3FFF795F80F281ED2DFE800F0080A8B
:101F30000C1D0E101D1D1D1D1D1D1215180001204C
:101F40000BE0022009E0032007E0042005E0052063
:101F500003E000F025F907E00020834604E000F0EC
:101F60002DF901E000F0A6F85198002875DDBBF1CD
:101F7000060F63D2DFE80BF0640315263748012013
:101F8000FFF756F860B106A93EA80DF1680CCDE93F
:101F900004019CE80F008DE80F000DF1580C45E09E
:101FA00041E00220FFF744F8E8B306A93EA80DF18E
:101FB000880CCDE904019CE80F008DE80F000DF1BD
:101FC000780C33E00320FFF733F860B306A93EA88E
:101FD0000DF1A80CCDE904019CE80F008DE80F007D
:101FE0000DF1980C22E00420FFF722F8D8B106A9E1
:101FF0003EA80DF1C80CCDE904019CE80F008DE866
:102000000F000DF1B80C11E00520FFF711F850B1E9
:1020100006A93EA80DF1E80CCDE904019CE80F00EB
:102020008DE80F0000E00BE00DF1D80C9CE80F00EC
:10203000FFF7B2FA06A8FFF79FF801E000F03AF8C0
:10204000C4F80490C4F80890C4F80C90FFF778FE28
:1020500000287FF4EFAEF3E6FFE74FF0000BEDE76B
:10206000382200080044004094000020004800404E
:1020700000500040A08601000000002070B588B02C
:1020800014464FF0FF3203920022CDE904220225CC
:102090008DF8185004AE03AD0096CDE901530B4600
:1020A00001466E2206A8FFF743F9206008B0002021
:1020B00070BD000000B589B0202204496846FEF7D3
:1020C000B0F86846FFF758F809B000BDD8210008FD
:1020D000C178006861F31F607047C1780268436887
:1020E00061F31F62C17961F31F63002150185941E8
:1020F00070470000DFED271A80EE211ADFED261A67
:1021000080EEA10AD0ED0D0A60EE812AC0ED002A12
:10211000D0ED0A0A20EE802A80ED012AD0ED021AC5
:10212000D0ED0F0A90ED0C3AD0ED083A40EE811A4E
:10213000D0ED030A71EE633A43EE000A90ED0E3AD9
:1021400072EEA12A23EE233A32EE202A80ED043AE1
:1021500090ED094AD0ED0B3A72EE832A30EE444AF4
:1021600063EE843AC0ED053A32EE232AC0ED062A2A
:1021700080ED072A80ED081A80ED090A9FED070A15
:1021800021EE801A20EE800A80ED021A80ED030A0B
:10219000002070470000F044000087448FC2753F64
:1021A00000B589B0202204496846FEF73AF868462F
:1021B000FEF7E2FF09B000BDF821000800B589B0C4
:1021C000202204496846FEF72CF86846FEF7D4FF43
:1021D00009B000BD18220008FF03FF03000400043B
:1021E00000040004000400040004000400040004CF
:1021F0000004000400040000FF03FF030004A40621
:1022000000040004000400040004000400040004AE
:102210000004000400040000FF03FF030004580250
:10222000000400040004000400040004000400048E
:102230000004000400040000FF03FF030004000486
:10224000000400040004000400040004000400046E
:102250000004000400040000000000000000000072
:10226000010203040607080900000000010203043C
:10227000902200080000002038000000201900080B
:10228000C822000838000020E009000030190008CA
:10229000000000000000000000000000000000003E
:1022A00000000000FFFFFFFFFFFFFFFF0000000036
:1022B000000000000100000010000000000000000D
:0822C0000024F40000000000FE
:040000050800018965
:00000001FF
